{
  "_format": "hh3-artifact-1",
  "contractName": "DualMint",
  "sourceName": "contracts/DualMint.sol",
  "abi": [
    {
      "anonymous": false,
      "inputs": [
        {
          "indexed": true,
          "internalType": "address",
          "name": "_owner",
          "type": "address"
        },
        {
          "indexed": true,
          "internalType": "address",
          "name": "_approved",
          "type": "address"
        },
        {
          "indexed": true,
          "internalType": "uint256",
          "name": "_tokenId",
          "type": "uint256"
        }
      ],
      "name": "Approval",
      "type": "event"
    },
    {
      "anonymous": false,
      "inputs": [
        {
          "indexed": true,
          "internalType": "address",
          "name": "_owner",
          "type": "address"
        },
        {
          "indexed": true,
          "internalType": "address",
          "name": "_operator",
          "type": "address"
        },
        {
          "indexed": false,
          "internalType": "bool",
          "name": "_approved",
          "type": "bool"
        }
      ],
      "name": "ApprovalForAll",
      "type": "event"
    },
    {
      "anonymous": false,
      "inputs": [
        {
          "indexed": false,
          "internalType": "address",
          "name": "_owner",
          "type": "address"
        },
        {
          "indexed": false,
          "internalType": "uint256",
          "name": "_amount",
          "type": "uint256"
        }
      ],
      "name": "Minted",
      "type": "event"
    },
    {
      "anonymous": false,
      "inputs": [
        {
          "indexed": true,
          "internalType": "address",
          "name": "_from",
          "type": "address"
        },
        {
          "indexed": true,
          "internalType": "address",
          "name": "_to",
          "type": "address"
        },
        {
          "indexed": true,
          "internalType": "uint256",
          "name": "_tokenId",
          "type": "uint256"
        }
      ],
      "name": "Transfer",
      "type": "event"
    },
    {
      "inputs": [
        {
          "internalType": "address",
          "name": "_approved",
          "type": "address"
        },
        {
          "internalType": "uint256",
          "name": "_tokenId",
          "type": "uint256"
        }
      ],
      "name": "approve",
      "outputs": [],
      "stateMutability": "payable",
      "type": "function"
    },
    {
      "inputs": [
        {
          "internalType": "address",
          "name": "_owner",
          "type": "address"
        }
      ],
      "name": "balanceOf",
      "outputs": [
        {
          "internalType": "uint256",
          "name": "",
          "type": "uint256"
        }
      ],
      "stateMutability": "view",
      "type": "function"
    },
    {
      "inputs": [
        {
          "internalType": "uint256",
          "name": "_tokenId",
          "type": "uint256"
        }
      ],
      "name": "getApproved",
      "outputs": [
        {
          "internalType": "address",
          "name": "",
          "type": "address"
        }
      ],
      "stateMutability": "view",
      "type": "function"
    },
    {
      "inputs": [
        {
          "internalType": "address",
          "name": "_owner",
          "type": "address"
        },
        {
          "internalType": "address",
          "name": "_operator",
          "type": "address"
        }
      ],
      "name": "isApprovedForAll",
      "outputs": [
        {
          "internalType": "bool",
          "name": "",
          "type": "bool"
        }
      ],
      "stateMutability": "view",
      "type": "function"
    },
    {
      "inputs": [],
      "name": "mint",
      "outputs": [
        {
          "internalType": "uint256",
          "name": "",
          "type": "uint256"
        }
      ],
      "stateMutability": "nonpayable",
      "type": "function"
    },
    {
      "inputs": [],
      "name": "owner",
      "outputs": [
        {
          "internalType": "address",
          "name": "",
          "type": "address"
        }
      ],
      "stateMutability": "view",
      "type": "function"
    },
    {
      "inputs": [
        {
          "internalType": "uint256",
          "name": "_tokenId",
          "type": "uint256"
        }
      ],
      "name": "ownerOf",
      "outputs": [
        {
          "internalType": "address",
          "name": "",
          "type": "address"
        }
      ],
      "stateMutability": "view",
      "type": "function"
    },
    {
      "inputs": [
        {
          "internalType": "address",
          "name": "_from",
          "type": "address"
        },
        {
          "internalType": "address",
          "name": "_to",
          "type": "address"
        },
        {
          "internalType": "uint256",
          "name": "_tokenId",
          "type": "uint256"
        }
      ],
      "name": "safeTransferFrom",
      "outputs": [],
      "stateMutability": "payable",
      "type": "function"
    },
    {
      "inputs": [
        {
          "internalType": "address",
          "name": "_from",
          "type": "address"
        },
        {
          "internalType": "address",
          "name": "_to",
          "type": "address"
        },
        {
          "internalType": "uint256",
          "name": "_tokenId",
          "type": "uint256"
        },
        {
          "internalType": "bytes",
          "name": "data",
          "type": "bytes"
        }
      ],
      "name": "safeTransferFrom",
      "outputs": [],
      "stateMutability": "payable",
      "type": "function"
    },
    {
      "inputs": [
        {
          "internalType": "address",
          "name": "_operator",
          "type": "address"
        },
        {
          "internalType": "bool",
          "name": "_approved",
          "type": "bool"
        }
      ],
      "name": "setApprovalForAll",
      "outputs": [],
      "stateMutability": "nonpayable",
      "type": "function"
    },
    {
      "inputs": [
        {
          "internalType": "address",
          "name": "_from",
          "type": "address"
        },
        {
          "internalType": "address",
          "name": "_to",
          "type": "address"
        },
        {
          "internalType": "uint256",
          "name": "_tokenId",
          "type": "uint256"
        }
      ],
      "name": "transferFrom",
      "outputs": [],
      "stateMutability": "payable",
      "type": "function"
    }
  ],
  "bytecode": "0x6080604052348015600e575f5ffd5b5061039e8061001c5f395ff3fe60806040526004361061009a575f3560e01c80636352211e116100625780636352211e1461009e57806370a082311461011d5780638da5cb5b14610137578063a22cb46514610155578063b88d4fde1461016f578063e985e9c514610184575f5ffd5b8063081812fc1461009e578063095ea7b3146100da5780631249c58b146100ee57806323b872dd1461010a57806342842e0e1461010a575b5f5ffd5b3480156100a9575f5ffd5b506100bd6100b83660046101b5565b505f90565b6040516001600160a01b0390911681526020015b60405180910390f35b6100ec6100e83660046101e7565b5050565b005b3480156100f9575f5ffd5b505f5b6040519081526020016100d1565b6100ec61011836600461020f565b505050565b348015610128575f5ffd5b506100fc6100b8366004610249565b348015610142575f5ffd5b505f546100bd906001600160a01b031681565b348015610160575f5ffd5b506100ec6100e8366004610269565b6100ec61017d3660046102a2565b5050505050565b34801561018f575f5ffd5b506101a561019e366004610337565b5f92915050565b60405190151581526020016100d1565b5f602082840312156101c5575f5ffd5b5035919050565b80356001600160a01b03811681146101e2575f5ffd5b919050565b5f5f604083850312156101f8575f5ffd5b610201836101cc565b946020939093013593505050565b5f5f5f60608486031215610221575f5ffd5b61022a846101cc565b9250610238602085016101cc565b929592945050506040919091013590565b5f60208284031215610259575f5ffd5b610262826101cc565b9392505050565b5f5f6040838503121561027a575f5ffd5b610283836101cc565b915060208301358015158114610297575f5ffd5b809150509250929050565b5f5f5f5f5f608086880312156102b6575f5ffd5b6102bf866101cc565b94506102cd602087016101cc565b935060408601359250606086013567ffffffffffffffff8111156102ef575f5ffd5b8601601f810188136102ff575f5ffd5b803567ffffffffffffffff811115610315575f5ffd5b886020828401011115610326575f5ffd5b959894975092955050506020019190565b5f5f60408385031215610348575f5ffd5b610351836101cc565b915061035f602084016101cc565b9050925092905056fea2646970667358221220c48aed2a0da59661118a8e06a59d70e83a41fdf817dc157e04fb782c381e326264736f6c634300081c0033",
  "linkReferences": {},
  "deployedLinkReferences": {},
  "immutableReferences": {},
  "inputSourceName": "project/contracts/DualMint.sol",
  "buildInfoId": "solc-0_8_28-e8fd0c8225313ab989fec49712e047cfb2dd0215"
}